{
  "contractName": "BasquiatContract",
  "abi": [
    {
      "constant": false,
      "inputs": [
        {
          "name": "_bassId",
          "type": "uint256"
        },
        {
          "name": "_brand",
          "type": "string"
        },
        {
          "name": "_basstype",
          "type": "string"
        },
        {
          "name": "_stringno",
          "type": "uint256"
        }
      ],
      "name": "setBassInfo",
      "outputs": [],
      "payable": false,
      "stateMutability": "nonpayable",
      "type": "function"
    },
    {
      "constant": true,
      "inputs": [
        {
          "name": "_bassId",
          "type": "uint256"
        }
      ],
      "name": "getBassInfo",
      "outputs": [
        {
          "name": "",
          "type": "string"
        },
        {
          "name": "",
          "type": "string"
        },
        {
          "name": "",
          "type": "uint256"
        }
      ],
      "payable": false,
      "stateMutability": "view",
      "type": "function"
    }
  ],
  "bytecode": "0x608060405234801561001057600080fd5b5061056e806100206000396000f3fe608060405234801561001057600080fd5b50600436106100365760003560e01c806312a15f9b1461003b578063c1e5c92714610155575b600080fd5b6100676004803603602081101561005157600080fd5b81019080803590602001909291905050506102bb565b604051808060200180602001848152602001838103835286818151815260200191508051906020019080838360005b838110156100b1578082015181840152602081019050610096565b50505050905090810190601f1680156100de5780820380516001836020036101000a031916815260200191505b50838103825285818151815260200191508051906020019080838360005b838110156101175780820151818401526020810190506100fc565b50505050905090810190601f1680156101445780820380516001836020036101000a031916815260200191505b509550505050505060405180910390f35b6102b96004803603608081101561016b57600080fd5b81019080803590602001909291908035906020019064010000000081111561019257600080fd5b8201836020820111156101a457600080fd5b803590602001918460018302840111640100000000831117156101c657600080fd5b91908080601f016020809104026020016040519081016040528093929190818152602001838380828437600081840152601f19601f8201169050808301925050505050505091929192908035906020019064010000000081111561022957600080fd5b82018360208201111561023b57600080fd5b8035906020019184600183028401116401000000008311171561025d57600080fd5b91908080601f016020809104026020016040519081016040528093929190818152602001838380828437600081840152601f19601f82011690508083019250505050505050919291929080359060200190929190505050610445565b005b606080600080600085815260200190815260200160002060000160008086815260200190815260200160002060010160008087815260200190815260200160002060020154828054600181600116156101000203166002900480601f0160208091040260200160405190810160405280929190818152602001828054600181600116156101000203166002900480156103955780601f1061036a57610100808354040283529160200191610395565b820191906000526020600020905b81548152906001019060200180831161037857829003601f168201915b50505050509250818054600181600116156101000203166002900480601f0160208091040260200160405190810160405280929190818152602001828054600181600116156101000203166002900480156104315780601f1061040657610100808354040283529160200191610431565b820191906000526020600020905b81548152906001019060200180831161041457829003601f168201915b505050505091509250925092509193909250565b600080600086815260200190815260200160002090508381600001908051906020019061047392919061049d565b508281600101908051906020019061048c92919061049d565b508181600201819055505050505050565b828054600181600116156101000203166002900490600052602060002090601f016020900481019282601f106104de57805160ff191683800117855561050c565b8280016001018555821561050c579182015b8281111561050b5782518255916020019190600101906104f0565b5b509050610519919061051d565b5090565b61053f91905b8082111561053b576000816000905550600101610523565b5090565b9056fea165627a7a72305820dbc4882106d7e1ecf2d1a267114111f7fc5c0512fbebf0cdc1722c0831a956530029",
  "source": "pragma solidity >=0.4.21 <0.6.0;\r\n\r\ncontract BasquiatContract {\r\n    struct Bass {\r\n        string brand;\r\n        string basstype;\r\n        uint stringno;\r\n    }\r\n\r\n    mapping(uint256 => Bass) bassInfo;\r\n\r\n    function setBassInfo(uint _bassId, string memory _brand, string memory _basstype, uint _stringno) public {\r\n        Bass storage bass = bassInfo[_bassId];\r\n        bass.brand = _brand;\r\n        bass.basstype = _basstype;\r\n        bass.stringno = _stringno;\r\n    }\r\n\r\n    function getBassInfo(uint256 _bassId) public view returns (string memory, string memory, uint) {\r\n        return (bassInfo[_bassId].brand, bassInfo[_bassId].basstype, bassInfo[_bassId].stringno);\r\n    }\r\n}",
  "sourcePath": "C:/basquiat-blockchain/truffle/contracts/BasquiatContract.sol",
  "compiler": {
    "name": "solc",
    "version": "0.5.8+commit.23d335f2.Emscripten.clang"
  },
  "schemaVersion": "3.0.11",
  "updatedAt": "2019-08-03T04:33:56.744Z",
  "devdoc": {
    "methods": {}
  },
  "userdoc": {
    "methods": {}
  }
}