{
  "contractName": "BasquiatContract",
  "abi": [
    {
      "constant": true,
      "inputs": [
        {
          "name": "",
          "type": "uint256"
        }
      ],
      "name": "sellerAddrs",
      "outputs": [
        {
          "name": "",
          "type": "address"
        }
      ],
      "payable": false,
      "stateMutability": "view",
      "type": "function"
    },
    {
      "constant": true,
      "inputs": [
        {
          "name": "",
          "type": "uint256"
        }
      ],
      "name": "buyersInfo",
      "outputs": [
        {
          "name": "userId",
          "type": "uint256"
        },
        {
          "name": "name",
          "type": "string"
        },
        {
          "name": "phone",
          "type": "string"
        },
        {
          "name": "addr",
          "type": "address"
        }
      ],
      "payable": false,
      "stateMutability": "view",
      "type": "function"
    },
    {
      "constant": true,
      "inputs": [
        {
          "name": "",
          "type": "uint256"
        }
      ],
      "name": "buyerAddrs",
      "outputs": [
        {
          "name": "",
          "type": "address"
        }
      ],
      "payable": false,
      "stateMutability": "view",
      "type": "function"
    },
    {
      "constant": true,
      "inputs": [],
      "name": "owner",
      "outputs": [
        {
          "name": "",
          "type": "address"
        }
      ],
      "payable": false,
      "stateMutability": "view",
      "type": "function"
    },
    {
      "inputs": [],
      "payable": false,
      "stateMutability": "nonpayable",
      "type": "constructor"
    },
    {
      "anonymous": false,
      "inputs": [
        {
          "indexed": false,
          "name": "buyerAddr",
          "type": "address"
        },
        {
          "indexed": false,
          "name": "sellerAddr",
          "type": "address"
        },
        {
          "indexed": false,
          "name": "id",
          "type": "uint256"
        }
      ],
      "name": "BuyBassLog",
      "type": "event"
    },
    {
      "constant": false,
      "inputs": [
        {
          "name": "_id",
          "type": "uint256"
        },
        {
          "name": "_userId",
          "type": "uint256"
        },
        {
          "name": "_name",
          "type": "string"
        },
        {
          "name": "_phone",
          "type": "string"
        },
        {
          "name": "_seller",
          "type": "address"
        }
      ],
      "name": "buyBass",
      "outputs": [],
      "payable": true,
      "stateMutability": "payable",
      "type": "function"
    },
    {
      "constant": true,
      "inputs": [
        {
          "name": "_userId",
          "type": "uint256"
        }
      ],
      "name": "getBuyerInfo",
      "outputs": [
        {
          "name": "",
          "type": "uint256"
        },
        {
          "name": "",
          "type": "string"
        },
        {
          "name": "",
          "type": "string"
        },
        {
          "name": "",
          "type": "address"
        }
      ],
      "payable": false,
      "stateMutability": "view",
      "type": "function"
    },
    {
      "constant": true,
      "inputs": [],
      "name": "getBuyerAddrs",
      "outputs": [
        {
          "name": "",
          "type": "address[]"
        }
      ],
      "payable": false,
      "stateMutability": "view",
      "type": "function"
    },
    {
      "constant": true,
      "inputs": [],
      "name": "getSellerAddrs",
      "outputs": [
        {
          "name": "",
          "type": "address[]"
        }
      ],
      "payable": false,
      "stateMutability": "view",
      "type": "function"
    }
  ],
  "bytecode": "0x608060405234801561001057600080fd5b50336000806101000a81548173ffffffffffffffffffffffffffffffffffffffff021916908373ffffffffffffffffffffffffffffffffffffffff160217905550610fba806100606000396000f3fe60806040526004361061007b5760003560e01c80638cb72b091161004e5780638cb72b091461041b5780638da5cb5b14610496578063d9e87a2d146104ed578063e5ad532f146106735761007b565b80632ec69ff6146100805780635aee8703146100fb57806367039c57146102555780636d640555146103af575b600080fd5b34801561008c57600080fd5b506100b9600480360360208110156100a357600080fd5b81019080803590602001909291905050506106df565b604051808273ffffffffffffffffffffffffffffffffffffffff1673ffffffffffffffffffffffffffffffffffffffff16815260200191505060405180910390f35b34801561010757600080fd5b506101346004803603602081101561011e57600080fd5b810190808035906020019092919050505061071b565b6040518085815260200180602001806020018473ffffffffffffffffffffffffffffffffffffffff1673ffffffffffffffffffffffffffffffffffffffff168152602001838103835286818151815260200191508051906020019080838360005b838110156101b0578082015181840152602081019050610195565b50505050905090810190601f1680156101dd5780820380516001836020036101000a031916815260200191505b50838103825285818151815260200191508051906020019080838360005b838110156102165780820151818401526020810190506101fb565b50505050905090810190601f1680156102435780820380516001836020036101000a031916815260200191505b50965050505050505060405180910390f35b34801561026157600080fd5b5061028e6004803603602081101561027857600080fd5b81019080803590602001909291905050506108e3565b6040518085815260200180602001806020018473ffffffffffffffffffffffffffffffffffffffff1673ffffffffffffffffffffffffffffffffffffffff168152602001838103835286818151815260200191508051906020019080838360005b8381101561030a5780820151818401526020810190506102ef565b50505050905090810190601f1680156103375780820380516001836020036101000a031916815260200191505b50838103825285818151815260200191508051906020019080838360005b83811015610370578082015181840152602081019050610355565b50505050905090810190601f16801561039d5780820380516001836020036101000a031916815260200191505b50965050505050505060405180910390f35b3480156103bb57600080fd5b506103c4610a63565b6040518080602001828103825283818151815260200191508051906020019060200280838360005b838110156104075780820151818401526020810190506103ec565b505050509050019250505060405180910390f35b34801561042757600080fd5b506104546004803603602081101561043e57600080fd5b8101908080359060200190929190505050610af1565b604051808273ffffffffffffffffffffffffffffffffffffffff1673ffffffffffffffffffffffffffffffffffffffff16815260200191505060405180910390f35b3480156104a257600080fd5b506104ab610b2d565b604051808273ffffffffffffffffffffffffffffffffffffffff1673ffffffffffffffffffffffffffffffffffffffff16815260200191505060405180910390f35b610671600480360360a081101561050357600080fd5b8101908080359060200190929190803590602001909291908035906020019064010000000081111561053457600080fd5b82018360208201111561054657600080fd5b8035906020019184600183028401116401000000008311171561056857600080fd5b91908080601f016020809104026020016040519081016040528093929190818152602001838380828437600081840152601f19601f820116905080830192505050505050509192919290803590602001906401000000008111156105cb57600080fd5b8201836020820111156105dd57600080fd5b803590602001918460018302840111640100000000831117156105ff57600080fd5b91908080601f016020809104026020016040519081016040528093929190818152602001838380828437600081840152601f19601f820116905080830192505050505050509192919290803573ffffffffffffffffffffffffffffffffffffffff169060200190929190505050610b52565b005b34801561067f57600080fd5b50610688610e5b565b6040518080602001828103825283818151815260200191508051906020019060200280838360005b838110156106cb5780820151818401526020810190506106b0565b505050509050019250505060405180910390f35b600281815481106106ec57fe5b906000526020600020016000915054906101000a900473ffffffffffffffffffffffffffffffffffffffff1681565b60006060806000600360008681526020019081526020016000206000015460036000878152602001908152602001600020600101600360008881526020019081526020016000206002016003600089815260200190815260200160002060030160009054906101000a900473ffffffffffffffffffffffffffffffffffffffff16828054600181600116156101000203166002900480601f0160208091040260200160405190810160405280929190818152602001828054600181600116156101000203166002900480156108315780601f1061080657610100808354040283529160200191610831565b820191906000526020600020905b81548152906001019060200180831161081457829003601f168201915b50505050509250818054600181600116156101000203166002900480601f0160208091040260200160405190810160405280929190818152602001828054600181600116156101000203166002900480156108cd5780601f106108a2576101008083540402835291602001916108cd565b820191906000526020600020905b8154815290600101906020018083116108b057829003601f168201915b5050505050915093509350935093509193509193565b6003602052806000526040600020600091509050806000015490806001018054600181600116156101000203166002900480601f0160208091040260200160405190810160405280929190818152602001828054600181600116156101000203166002900480156109955780601f1061096a57610100808354040283529160200191610995565b820191906000526020600020905b81548152906001019060200180831161097857829003601f168201915b505050505090806002018054600181600116156101000203166002900480601f016020809104026020016040519081016040528092919081815260200182805460018160011615610100020316600290048015610a335780601f10610a0857610100808354040283529160200191610a33565b820191906000526020600020905b815481529060010190602001808311610a1657829003601f168201915b5050505050908060030160009054906101000a900473ffffffffffffffffffffffffffffffffffffffff16905084565b60606002805480602002602001604051908101604052809291908181526020018280548015610ae757602002820191906000526020600020905b8160009054906101000a900473ffffffffffffffffffffffffffffffffffffffff1673ffffffffffffffffffffffffffffffffffffffff1681526020019060010190808311610a9d575b5050505050905090565b60018181548110610afe57fe5b906000526020600020016000915054906101000a900473ffffffffffffffffffffffffffffffffffffffff1681565b6000809054906101000a900473ffffffffffffffffffffffffffffffffffffffff1681565b60405180608001604052808581526020018481526020018381526020013373ffffffffffffffffffffffffffffffffffffffff1681525060036000878152602001908152602001600020600082015181600001556020820151816001019080519060200190610bc2929190610ee9565b506040820151816002019080519060200190610bdf929190610ee9565b5060608201518160030160006101000a81548173ffffffffffffffffffffffffffffffffffffffff021916908373ffffffffffffffffffffffffffffffffffffffff16021790555090505060013390806001815401808255809150509060018203906000526020600020016000909192909190916101000a81548173ffffffffffffffffffffffffffffffffffffffff021916908373ffffffffffffffffffffffffffffffffffffffff1602179055505060028190806001815401808255809150509060018203906000526020600020016000909192909190916101000a81548173ffffffffffffffffffffffffffffffffffffffff021916908373ffffffffffffffffffffffffffffffffffffffff160217905550506000809054906101000a900473ffffffffffffffffffffffffffffffffffffffff1673ffffffffffffffffffffffffffffffffffffffff166108fc662386f26fc100009081150290604051600060405180830381858888f19350505050158015610d64573d6000803e3d6000fd5b508073ffffffffffffffffffffffffffffffffffffffff166108fc662386f26fc1000034039081150290604051600060405180830381858888f19350505050158015610db4573d6000803e3d6000fd5b507f521d99fc37a8dd67b828de3aca2cd43c4d8e1461e13f033f87721d70bd6670f5338287604051808473ffffffffffffffffffffffffffffffffffffffff1673ffffffffffffffffffffffffffffffffffffffff1681526020018373ffffffffffffffffffffffffffffffffffffffff1673ffffffffffffffffffffffffffffffffffffffff168152602001828152602001935050505060405180910390a15050505050565b60606001805480602002602001604051908101604052809291908181526020018280548015610edf57602002820191906000526020600020905b8160009054906101000a900473ffffffffffffffffffffffffffffffffffffffff1673ffffffffffffffffffffffffffffffffffffffff1681526020019060010190808311610e95575b5050505050905090565b828054600181600116156101000203166002900490600052602060002090601f016020900481019282601f10610f2a57805160ff1916838001178555610f58565b82800160010185558215610f58579182015b82811115610f57578251825591602001919060010190610f3c565b5b509050610f659190610f69565b5090565b610f8b91905b80821115610f87576000816000905550600101610f6f565b5090565b9056fea165627a7a72305820948cb8e5e5075048878c41a0502a7816854c25647c6b2983febd4e0244d1d3450029",
  "source": "pragma solidity >=0.4.21 <0.6.0;\r\n\r\ncontract BasquiatContract {\r\n    address payable public owner;\r\n    constructor() public {\r\n        owner = msg.sender;\r\n    }\r\n\r\n    address[] public buyerAddrs;\r\n    address[] public sellerAddrs;\r\n\r\n\r\n    struct BassBuyer {\r\n        uint userId;\r\n        string name;\r\n        string phone;\r\n        address addr;\r\n    }\r\n\r\n    event BuyBassLog(\r\n        address buyerAddr,\r\n        address sellerAddr,\r\n        uint id\r\n    );\r\n\r\n    mapping(uint256 => BassBuyer) public buyersInfo;\r\n\r\n\r\n    function buyBass(uint _id, uint _userId, string memory _name, string memory _phone, address payable _seller) public payable {\r\n       buyersInfo[_id] = BassBuyer(_userId, _name, _phone, msg.sender);\r\n       buyerAddrs.push(msg.sender);\r\n       sellerAddrs.push(_seller);\r\n       owner.transfer(10000000000000000);\r\n       _seller.transfer(msg.value - 10000000000000000);\r\n\r\n       emit BuyBassLog(msg.sender, _seller, _id);\r\n    }\r\n\r\n    function getBuyerInfo(uint256 _userId) public view returns (uint, string memory, string memory, address) {\r\n        return (buyersInfo[_userId].userId, buyersInfo[_userId].name, buyersInfo[_userId].phone, buyersInfo[_userId].addr);\r\n    }\r\n\r\n    function getBuyerAddrs() public view returns (address[] memory) {\r\n        return buyerAddrs;\r\n    }\r\n\r\n    function getSellerAddrs() public view returns (address[] memory) {\r\n        return sellerAddrs;\r\n    }\r\n\r\n}",
  "sourcePath": "C:/basquiat-blockchain/truffle/contracts/BasquiatContract.sol",
  "compiler": {
    "name": "solc",
    "version": "0.5.8+commit.23d335f2.Emscripten.clang"
  },
  "schemaVersion": "3.0.11",
  "updatedAt": "2019-08-04T06:52:29.472Z",
  "devdoc": {
    "methods": {}
  },
  "userdoc": {
    "methods": {}
  }
}